{
  "contractName": "Beats",
  "abi": [
    {
      "inputs": [],
      "stateMutability": "nonpayable",
      "type": "constructor"
    },
    {
      "anonymous": false,
      "inputs": [
        {
          "indexed": false,
          "internalType": "uint256",
          "name": "id",
          "type": "uint256"
        },
        {
          "indexed": false,
          "internalType": "string",
          "name": "title",
          "type": "string"
        },
        {
          "indexed": false,
          "internalType": "uint256",
          "name": "price",
          "type": "uint256"
        },
        {
          "indexed": false,
          "internalType": "address payable",
          "name": "owner",
          "type": "address"
        },
        {
          "indexed": false,
          "internalType": "bool",
          "name": "purchased",
          "type": "bool"
        }
      ],
      "name": "BeatCreated",
      "type": "event"
    },
    {
      "anonymous": false,
      "inputs": [
        {
          "indexed": false,
          "internalType": "uint256",
          "name": "id",
          "type": "uint256"
        },
        {
          "indexed": false,
          "internalType": "string",
          "name": "title",
          "type": "string"
        },
        {
          "indexed": false,
          "internalType": "uint256",
          "name": "price",
          "type": "uint256"
        },
        {
          "indexed": false,
          "internalType": "address payable",
          "name": "owner",
          "type": "address"
        },
        {
          "indexed": false,
          "internalType": "bool",
          "name": "purchased",
          "type": "bool"
        }
      ],
      "name": "BeatPurchased",
      "type": "event"
    },
    {
      "inputs": [],
      "name": "beatCount",
      "outputs": [
        {
          "internalType": "uint256",
          "name": "",
          "type": "uint256"
        }
      ],
      "stateMutability": "view",
      "type": "function",
      "constant": true
    },
    {
      "inputs": [
        {
          "internalType": "uint256",
          "name": "",
          "type": "uint256"
        }
      ],
      "name": "beats",
      "outputs": [
        {
          "internalType": "uint256",
          "name": "id",
          "type": "uint256"
        },
        {
          "internalType": "string",
          "name": "title",
          "type": "string"
        },
        {
          "internalType": "uint256",
          "name": "price",
          "type": "uint256"
        },
        {
          "internalType": "address payable",
          "name": "owner",
          "type": "address"
        },
        {
          "internalType": "bool",
          "name": "purchased",
          "type": "bool"
        }
      ],
      "stateMutability": "view",
      "type": "function",
      "constant": true
    },
    {
      "inputs": [],
      "name": "name",
      "outputs": [
        {
          "internalType": "string",
          "name": "",
          "type": "string"
        }
      ],
      "stateMutability": "view",
      "type": "function",
      "constant": true
    },
    {
      "inputs": [
        {
          "internalType": "uint256",
          "name": "_id",
          "type": "uint256"
        },
        {
          "internalType": "string",
          "name": "_title",
          "type": "string"
        },
        {
          "internalType": "uint256",
          "name": "_price",
          "type": "uint256"
        }
      ],
      "name": "createBeat",
      "outputs": [],
      "stateMutability": "nonpayable",
      "type": "function"
    },
    {
      "inputs": [
        {
          "internalType": "uint256",
          "name": "_id",
          "type": "uint256"
        }
      ],
      "name": "purchaseBeat",
      "outputs": [],
      "stateMutability": "payable",
      "type": "function",
      "payable": true
    }
  ],
  "bytecode": "0x608060405260006001553480156200001657600080fd5b506040518060400160405280600981526020017f42656174636861696e000000000000000000000000000000000000000000000081525060009080519060200190620000649291906200006b565b5062000180565b82805462000079906200014a565b90600052602060002090601f0160209004810192826200009d5760008555620000e9565b82601f10620000b857805160ff1916838001178555620000e9565b82800160010185558215620000e9579182015b82811115620000e8578251825591602001919060010190620000cb565b5b509050620000f89190620000fc565b5090565b5b8082111562000117576000816000905550600101620000fd565b5090565b7f4e487b7100000000000000000000000000000000000000000000000000000000600052602260045260246000fd5b600060028204905060018216806200016357607f821691505b602082108114156200017a57620001796200011b565b5b50919050565b610d6580620001906000396000f3fe60806040526004361061004a5760003560e01c806306fdde031461004f57806366bcd88f1461007a57806385380826146100bb578063963ed064146100e6578063c6c2f0601461010f575b600080fd5b34801561005b57600080fd5b5061006461012b565b6040516100719190610939565b60405180910390f35b34801561008657600080fd5b506100a1600480360381019061009c91906109a5565b6101b9565b6040516100b2959493929190610a3d565b60405180910390f35b3480156100c757600080fd5b506100d06102a4565b6040516100dd9190610a97565b60405180910390f35b3480156100f257600080fd5b5061010d60048036038101906101089190610be7565b6102aa565b005b610129600480360381019061012491906109a5565b610412565b005b6000805461013890610c85565b80601f016020809104026020016040519081016040528092919081815260200182805461016490610c85565b80156101b15780601f10610186576101008083540402835291602001916101b1565b820191906000526020600020905b81548152906001019060200180831161019457829003601f168201915b505050505081565b60026020528060005260406000206000915090508060000154908060010180546101e290610c85565b80601f016020809104026020016040519081016040528092919081815260200182805461020e90610c85565b801561025b5780601f106102305761010080835404028352916020019161025b565b820191906000526020600020905b81548152906001019060200180831161023e57829003601f168201915b5050505050908060020154908060030160009054906101000a900473ffffffffffffffffffffffffffffffffffffffff16908060030160149054906101000a900460ff16905085565b60015481565b60008251116102b857600080fd5b600081116102c557600080fd5b600160008154809291906102d890610ce6565b91905055506040518060a001604052808481526020018381526020018281526020013373ffffffffffffffffffffffffffffffffffffffff168152602001600015158152506002600060015481526020019081526020016000206000820151816000015560208201518160010190805190602001906103589291906107b6565b506040820151816002015560608201518160030160006101000a81548173ffffffffffffffffffffffffffffffffffffffff021916908373ffffffffffffffffffffffffffffffffffffffff16021790555060808201518160030160146101000a81548160ff0219169083151502179055509050507fbc5f99647f075802fbb9c20f94a576e42630433d5e997c02bec98b1882277be9838383336000604051610405959493929190610a3d565b60405180910390a1505050565b61041a61083c565b6000600190505b600154811161059357826002600083815260200190815260200160002060000154141561058057600260008281526020019081526020016000206040518060a00160405290816000820154815260200160018201805461048090610c85565b80601f01602080910402602001604051908101604052809291908181526020018280546104ac90610c85565b80156104f95780601f106104ce576101008083540402835291602001916104f9565b820191906000526020600020905b8154815290600101906020018083116104dc57829003601f168201915b50505050508152602001600282015481526020016003820160009054906101000a900473ffffffffffffffffffffffffffffffffffffffff1673ffffffffffffffffffffffffffffffffffffffff1673ffffffffffffffffffffffffffffffffffffffff1681526020016003820160149054906101000a900460ff16151515158152505091505b808061058b90610ce6565b915050610421565b6000826060015190503373ffffffffffffffffffffffffffffffffffffffff168173ffffffffffffffffffffffffffffffffffffffff1614156105d557600080fd5b82604001513410156105e657600080fd5b60018360800190151590811515815250506040518060a0016040528085815260200184602001518152602001846040015181526020013373ffffffffffffffffffffffffffffffffffffffff16815260200160011515815250600260008481526020019081526020016000206000820151816000015560208201518160010190805190602001906106789291906107b6565b506040820151816002015560608201518160030160006101000a81548173ffffffffffffffffffffffffffffffffffffffff021916908373ffffffffffffffffffffffffffffffffffffffff16021790555060808201518160030160146101000a81548160ff0219169083151502179055509050508073ffffffffffffffffffffffffffffffffffffffff166108fc349081150290604051600060405180830381858888f19350505050158015610733573d6000803e3d6000fd5b507f2db1ab35302f9bbe4670668617e37ea88af17b54afd457872e979460156e85478484602001516002600086815260200190815260200160002060020154336002600088815260200190815260200160002060030160149054906101000a900460ff166040516107a8959493929190610a3d565b60405180910390a150505050565b8280546107c290610c85565b90600052602060002090601f0160209004810192826107e4576000855561082b565b82601f106107fd57805160ff191683800117855561082b565b8280016001018555821561082b579182015b8281111561082a57825182559160200191906001019061080f565b5b5090506108389190610883565b5090565b6040518060a00160405280600081526020016060815260200160008152602001600073ffffffffffffffffffffffffffffffffffffffff1681526020016000151581525090565b5b8082111561089c576000816000905550600101610884565b5090565b600081519050919050565b600082825260208201905092915050565b60005b838110156108da5780820151818401526020810190506108bf565b838111156108e9576000848401525b50505050565b6000601f19601f8301169050919050565b600061090b826108a0565b61091581856108ab565b93506109258185602086016108bc565b61092e816108ef565b840191505092915050565b600060208201905081810360008301526109538184610900565b905092915050565b6000604051905090565b600080fd5b600080fd5b6000819050919050565b6109828161096f565b811461098d57600080fd5b50565b60008135905061099f81610979565b92915050565b6000602082840312156109bb576109ba610965565b5b60006109c984828501610990565b91505092915050565b6109db8161096f565b82525050565b600073ffffffffffffffffffffffffffffffffffffffff82169050919050565b6000610a0c826109e1565b9050919050565b610a1c81610a01565b82525050565b60008115159050919050565b610a3781610a22565b82525050565b600060a082019050610a5260008301886109d2565b8181036020830152610a648187610900565b9050610a7360408301866109d2565b610a806060830185610a13565b610a8d6080830184610a2e565b9695505050505050565b6000602082019050610aac60008301846109d2565b92915050565b600080fd5b600080fd5b7f4e487b7100000000000000000000000000000000000000000000000000000000600052604160045260246000fd5b610af4826108ef565b810181811067ffffffffffffffff82111715610b1357610b12610abc565b5b80604052505050565b6000610b2661095b565b9050610b328282610aeb565b919050565b600067ffffffffffffffff821115610b5257610b51610abc565b5b610b5b826108ef565b9050602081019050919050565b82818337600083830152505050565b6000610b8a610b8584610b37565b610b1c565b905082815260208101848484011115610ba657610ba5610ab7565b5b610bb1848285610b68565b509392505050565b600082601f830112610bce57610bcd610ab2565b5b8135610bde848260208601610b77565b91505092915050565b600080600060608486031215610c0057610bff610965565b5b6000610c0e86828701610990565b935050602084013567ffffffffffffffff811115610c2f57610c2e61096a565b5b610c3b86828701610bb9565b9250506040610c4c86828701610990565b9150509250925092565b7f4e487b7100000000000000000000000000000000000000000000000000000000600052602260045260246000fd5b60006002820490506001821680610c9d57607f821691505b60208210811415610cb157610cb0610c56565b5b50919050565b7f4e487b7100000000000000000000000000000000000000000000000000000000600052601160045260246000fd5b6000610cf18261096f565b91507fffffffffffffffffffffffffffffffffffffffffffffffffffffffffffffffff821415610d2457610d23610cb7565b5b60018201905091905056fea2646970667358221220d5fbaf8f89d1d5473256e7abb72db670beeb15a1b71a5e0f38a78d3158de7b3264736f6c634300080c0033",
  "immutableReferences": {},
  "source": "// SPDX-License-Identifier: MIT\r\npragma solidity >=0.4.22 <0.9.0;\r\n\r\ncontract Beats {\r\n    string public name;\r\n    uint public beatCount = 0;\r\n    mapping(uint => Beat) public beats;\r\n\r\n    struct Beat {\r\n        uint id;\r\n        string title;\r\n        uint price;\r\n        address payable owner;\r\n        bool purchased;\r\n    }\r\n\r\n    event BeatCreated(\r\n        uint id,\r\n        string title,\r\n        uint price,\r\n        address payable owner,\r\n        bool purchased\r\n    );\r\n\r\n    event BeatPurchased(\r\n        uint id,\r\n        string title,\r\n        uint price,\r\n        address payable owner,\r\n        bool purchased\r\n    );\r\n\r\n    constructor() {\r\n        name = \"Beatchain\";\r\n    }\r\n\r\n    function createBeat(uint _id, string memory _title, uint _price) public {\r\n        \r\n        require(bytes(_title).length > 0);\r\n\r\n        require(_price > 0);\r\n        \r\n        beatCount++;\r\n\r\n        beats[beatCount] = Beat(_id, _title, _price, payable(msg.sender), false);\r\n\r\n        emit BeatCreated(_id, _title, _price, payable(msg.sender), false);\r\n    }\r\n\r\n    function purchaseBeat(uint _id) public payable {\r\n        //fetch product\r\n        \r\n        Beat memory _beat;\r\n        uint i;\r\n        for (i = 1; i <= beatCount; i++) {\r\n            if (beats[i].id == _id) {\r\n                _beat = beats[i];\r\n            }\r\n        }\r\n        \r\n\r\n        //fetch address\r\n        address payable _seller = _beat.owner;\r\n\r\n        require(_seller != msg.sender);\r\n\r\n        // //enough ether\r\n        require(msg.value >= _beat.price);\r\n\r\n        _beat.purchased = true;\r\n\r\n        //update beat mapping\r\n        beats[i] = Beat(_id, _beat.title, _beat.price, payable(msg.sender), true);\r\n        //beats[_id] = _beat;\r\n\r\n        //payment\r\n        payable(address(_seller)).transfer(msg.value);\r\n\r\n        emit BeatPurchased(_id, _beat.title, beats[i].price, payable(msg.sender), beats[i].purchased);\r\n    }\r\n}",
  "sourcePath": "C:\\Users\\Adam\\Desktop\\Beatchain2\\da-rp-repo\\resources\\dapp\\contracts\\Beats.sol",
  "compiler": {
    "name": "solc",
    "version": "0.8.12+commit.f00d7308.Emscripten.clang"
  },
  "schemaVersion": "3.4.6",
  "updatedAt": "2022-03-29T08:59:53.904Z",
  "networkType": "ethereum",
  "devdoc": {
    "kind": "dev",
    "methods": {},
    "version": 1
  },
  "userdoc": {
    "kind": "user",
    "methods": {},
    "version": 1
  }
}